:1004290020202020202020202020202020202020C3
:1004390000695F5F5F5F5F5F5F5F5F5F5F5F5F5F18
:100449005F00706F696E74006A756D7021005F00DE
:1004590020202020200067616D65206F766572007D
:08046900796F752077696E00C0
:1005EC000113010117100112000114030118050178
:0205FC001100EC
:10018C00E4F5167518057514031205D87BFF7A046F
:10019C0079297D017F0112054F7BFF7A0479297D36
:1001AC00017F0212054F7BFF7A04793A7D017F02B1
:1001BC0012054F7BFF7A04794B7D0A7F0112054FA4
:1001CC001200038F15E5156401702AE513640170A4
:1001DC0024F5137B5F7D017F021206187B697D017C
:1001EC007F011206187BFF7A0479517D047F01127E
:1001FC00054FE4F5120512E512C39514405EE4F5C3
:10020C0012E5179410500D7BFF7A047957AD177FC8
:10021C000212054FD51703751710E517C39410502C
:0E022C00097B23AD177F02120618E513702E12
:10023A000511E511C394024025E4F5117513017BFC
:10024A00207D017F011206187B697D017F0212065B
:0E025A00187BFF7A0479597D047F0112054F4D
:10026800E51364017034E5176401702E1205D87B1C
:10027800FF7A04795F7D017F0112054F7F017E00BF
:100288001205C31200038F15E515640270030201FD
:100298008C7F017E001205C380E2E5137016E51716
:1002A800B401110516E516FB7A00750C027D0F7F67
:1002B80001120590E516C395184008151474052514
:1002C80018F518E5166414702E1205D87BFF7A0409
:1002D80079697D017F0112054F7F017E001205C3F8
:1002E8001200038F15E5156402700302018C7F016B
:1002F8007E001205C380E27F967E001205C30201CC
:01030800CC28
:0605FF00C2A58F80D2A707
:080605007F027EEFDEFEDFFC48
:01060D0022CA
:0A060E00C2A61205FFC2A7020605EE
:10057200CFCDCFCECCCE1203487C007D0A120348E9
:04058200ED2430FF35
:0A058600D2A61205FFC2A702060567
:1005AD00AE07BE0104ED148006BE0209ED243F44E2
:0605BD0080FF12060E2271
:1005D8007F3812060E7F0C12060E7F0612060E7F5B
:0405E8000102060EF8
:0A061800AC031205ADAF0402058625
:06054F008B088A09890AED
:100555001205ADE4FDAB08AA09A90A8D82758300D1
:0C056500120309FF60061205860D80E9F4
:010571002267
:0C051C007F0AEA24FFFDE434FFFC7E00AF
:080528008E0D8F0E8C0F8D105B
:100530007F017E00E4FBEBC39510E50F6480F87447
:0E0540008098500AAC0DAD0E1203360B80E809
:01054E00228A
:040590008A0A8B0B3D
:100594001205ADAA0CEAD39400400D12051CAC0A56
:0805A400AD0B1205721A80ED87
:0105AC00222C
:100471001205ADC3EA64809480400B7F2B12058680
:100481008A1E8B1F800E7F2D120586C3E49BF51FEC
:10049100E49AF51EAA1DEAD39400400D12051CAC86
:0904A1001EAD1F1205721A80ED58
:0104AA00222F
:0404AB008A228B23F3
:1004AF001205ADAA24EAD3940040297F1012051E2D
:1004BF00AC22AD23CFCDCFCECCCE120348EF540F0D
:1004CF00FEC3940AEE5004243080022437FF120535
:0404DF00861A80D128
:0104E30022F6
:0404E4008A278B28B0
:1004E8001205ADAA29EAD394004028EA24FFFDE4C6
:1004F80034FFFC7F027E00120528AC27AD28CFCD43
:10050800CFCECCCE120348EF54012430FF1205861B
:030518001A80D274
:01051B0022BD
:10000300E4F5087590FFC2932097137F14FE120541
:10001300C33097FD7F147E001205C3750801209637
:10002300147F147E001205C33096FD7F147E0012E8
:1000330005C37508052095147F147E001205C3308F
:1000430095FD7F147E001205C37508092094147F63
:10005300147E001205C33094FD7F147E001205C385
:1000630075080D7590FFC2922097147F147E0012BD
:1000730005C33097FD7F147E001205C37508022067
:1000830096147F147E001205C33096FD7F147E0004
:100093001205C37508062095147F147E001205C34C
:1000A3003095FD7F147E001205C375080A20941451
:1000B3007F147E001205C33094FD7F147E00120569
:1000C300C375080E7590FFC2912097147F147E00AC
:1000D3001205C33097FD7F147E001205C375080314
:1000E3002096147F147E001205C33096FD7F147E84
:1000F300001205C37508072095147F147E001205AE
:10010300C33095FD7F147E001205C375080B209440
:10011300147F147E001205C33094FD7F147E0012F9
:1001230005C375080F7590FFC2902097147F147E46
:10013300001205C33097FD7F147E001205C37508B6
:10014300042096147F147E001205C33096FD7F149D
:100153007E001205C37508082095147F147E0012D3
:1001630005C33095FD7F147E001205C375080C206E
:1001730094147F147E001205C33094FD7F147E0017
:080183001205C3750810AF0856
:01018B002251
:1005C300EF1FAC0670011E4C600A7D027CEFDCFE5F
:0405D300DDFC80ECDF
:0105D7002201
:0300000002039D5B
:0C039D00787FE4F6D8FD7581290203E4A6
:10030900BB010CE58229F582E5833AF583E02250A9
:1003190006E92582F8E622BBFE06E92582F8E222F3
:0D032900E58229F582E5833AF583E493220D
:10033600EF8DF0A4A8F0CF8CF0A428CE8DF0A42EDB
:02034600FE2295
:10034800BC000BBE0029EF8DF084FFADF022E4CC99
:10035800F875F008EF2FFFEE33FEEC33FCEE9DEC62
:10036800984005FCEE9DFE0FD5F0E9E4CEFD22EDA8
:10037800F8F5F0EE8420D21CFEADF075F008EF2FF2
:10038800FFED33FD4007985006D5F0F222C398FDE3
:050398000FD5F0EA2280
:1003A90002018CE493A3F8E493A34003F68001F2DD
:1003B90008DFF48029E493A3F85407240CC8C33355
:1003C900C4540F4420C8834004F456800146F6DF24
:1003D900E4800B01020408102040809005ECE47EC3
:1003E900019360BCA3FF543F30E509541FFEE49319
:1003F900A360010ECF54C025E060A840B8E493A3E0
:10040900FAE493A3F8E493A3C8C582C8CAC583CA0A
:10041900F0A3C8C582C8CAC583CADFE9DEE780BEC2
:0105FE0000FC
:00000001FF
